{
    "_format": "hh-sol-artifact-1",
    "contractName": "Transactions",
    "sourceName": "contracts/Transactions.sol",
    "abi": [
        {
            "anonymous": false,
            "inputs": [
                {
                    "indexed": false,
                    "internalType": "address",
                    "name": "from",
                    "type": "address"
                },
                {
                    "indexed": false,
                    "internalType": "address",
                    "name": "receiver",
                    "type": "address"
                },
                {
                    "indexed": false,
                    "internalType": "uint256",
                    "name": "amount",
                    "type": "uint256"
                },
                {
                    "indexed": false,
                    "internalType": "string",
                    "name": "message",
                    "type": "string"
                },
                {
                    "indexed": false,
                    "internalType": "uint256",
                    "name": "timestamp",
                    "type": "uint256"
                },
                {
                    "indexed": false,
                    "internalType": "string",
                    "name": "keyword",
                    "type": "string"
                }
            ],
            "name": "Transfer",
            "type": "event"
        },
        {
            "inputs": [
                {
                    "internalType": "address payable",
                    "name": "receiver",
                    "type": "address"
                },
                {
                    "internalType": "uint256",
                    "name": "amount",
                    "type": "uint256"
                },
                {
                    "internalType": "string",
                    "name": "message",
                    "type": "string"
                },
                {
                    "internalType": "string",
                    "name": "keyword",
                    "type": "string"
                }
            ],
            "name": "addToBlockchain",
            "outputs": [],
            "stateMutability": "nonpayable",
            "type": "function"
        },
        {
            "inputs": [],
            "name": "getAllTransactions",
            "outputs": [
                {
                    "components": [
                        {
                            "internalType": "address",
                            "name": "sender",
                            "type": "address"
                        },
                        {
                            "internalType": "address",
                            "name": "receiver",
                            "type": "address"
                        },
                        {
                            "internalType": "uint256",
                            "name": "amount",
                            "type": "uint256"
                        },
                        {
                            "internalType": "string",
                            "name": "message",
                            "type": "string"
                        },
                        {
                            "internalType": "uint256",
                            "name": "timestamp",
                            "type": "uint256"
                        },
                        {
                            "internalType": "string",
                            "name": "keyword",
                            "type": "string"
                        }
                    ],
                    "internalType": "struct Transactions.TransferStruct[]",
                    "name": "",
                    "type": "tuple[]"
                }
            ],
            "stateMutability": "view",
            "type": "function"
        },
        {
            "inputs": [],
            "name": "getTransactionsCount",
            "outputs": [
                {
                    "internalType": "uint256",
                    "name": "",
                    "type": "uint256"
                }
            ],
            "stateMutability": "view",
            "type": "function"
        },
        {
            "inputs": [],
            "name": "transactionCount",
            "outputs": [
                {
                    "internalType": "uint256",
                    "name": "",
                    "type": "uint256"
                }
            ],
            "stateMutability": "view",
            "type": "function"
        },
        {
            "inputs": [
                {
                    "internalType": "uint256",
                    "name": "",
                    "type": "uint256"
                }
            ],
            "name": "transactions",
            "outputs": [
                {
                    "internalType": "address",
                    "name": "sender",
                    "type": "address"
                },
                {
                    "internalType": "address",
                    "name": "receiver",
                    "type": "address"
                },
                {
                    "internalType": "uint256",
                    "name": "amount",
                    "type": "uint256"
                },
                {
                    "internalType": "string",
                    "name": "message",
                    "type": "string"
                },
                {
                    "internalType": "uint256",
                    "name": "timestamp",
                    "type": "uint256"
                },
                {
                    "internalType": "string",
                    "name": "keyword",
                    "type": "string"
                }
            ],
            "stateMutability": "view",
            "type": "function"
        }
    ],
    "bytecode": "0x608060405234801561001057600080fd5b506110b3806100206000396000f3fe608060405234801561001057600080fd5b50600436106100575760003560e01c806327506f531461005c578063578cb8f91461007a5780639ace38c214610098578063b77bf600146100cd578063cc2d7ead146100eb575b600080fd5b610064610107565b60405161007191906108e5565b60405180910390f35b61008261034a565b60405161008f9190610916565b60405180910390f35b6100b260048036038101906100ad9190610971565b610353565b6040516100c4969594939291906109f7565b60405180910390f35b6100d56104ef565b6040516100e29190610916565b60405180910390f35b61010560048036038101906101009190610bd9565b6104f5565b005b60606001805480602002602001604051908101604052809291908181526020016000905b8282101561034157838290600052602060002090600602016040518060c00160405290816000820160009054906101000a900473ffffffffffffffffffffffffffffffffffffffff1673ffffffffffffffffffffffffffffffffffffffff1673ffffffffffffffffffffffffffffffffffffffff1681526020016001820160009054906101000a900473ffffffffffffffffffffffffffffffffffffffff1673ffffffffffffffffffffffffffffffffffffffff1673ffffffffffffffffffffffffffffffffffffffff1681526020016002820154815260200160038201805461021490610ca7565b80601f016020809104026020016040519081016040528092919081815260200182805461024090610ca7565b801561028d5780601f106102625761010080835404028352916020019161028d565b820191906000526020600020905b81548152906001019060200180831161027057829003601f168201915b50505050508152602001600482015481526020016005820180546102b090610ca7565b80601f01602080910402602001604051908101604052809291908181526020018280546102dc90610ca7565b80156103295780601f106102fe57610100808354040283529160200191610329565b820191906000526020600020905b81548152906001019060200180831161030c57829003601f168201915b5050505050815250508152602001906001019061012b565b50505050905090565b60008054905090565b6001818154811061036357600080fd5b90600052602060002090600602016000915090508060000160009054906101000a900473ffffffffffffffffffffffffffffffffffffffff16908060010160009054906101000a900473ffffffffffffffffffffffffffffffffffffffff16908060020154908060030180546103d890610ca7565b80601f016020809104026020016040519081016040528092919081815260200182805461040490610ca7565b80156104515780601f1061042657610100808354040283529160200191610451565b820191906000526020600020905b81548152906001019060200180831161043457829003601f168201915b50505050509080600401549080600501805461046c90610ca7565b80601f016020809104026020016040519081016040528092919081815260200182805461049890610ca7565b80156104e55780601f106104ba576101008083540402835291602001916104e5565b820191906000526020600020905b8154815290600101906020018083116104c857829003601f168201915b5050505050905086565b60005481565b60016000808282546105079190610d07565b9250508190555060016040518060c001604052803373ffffffffffffffffffffffffffffffffffffffff1681526020018673ffffffffffffffffffffffffffffffffffffffff16815260200185815260200184815260200142815260200183815250908060018154018082558091505060019003906000526020600020906006020160009091909190915060008201518160000160006101000a81548173ffffffffffffffffffffffffffffffffffffffff021916908373ffffffffffffffffffffffffffffffffffffffff16021790555060208201518160010160006101000a81548173ffffffffffffffffffffffffffffffffffffffff021916908373ffffffffffffffffffffffffffffffffffffffff16021790555060408201518160020155606082015181600301908161063f9190610ee7565b506080820151816004015560a082015181600501908161065f9190610ee7565b5050507f416cfa4330a4565f45c2fd2dd4826a83a37443aba2ce6f79477c7355afac35fa33858585428660405161069b9695949392919061100e565b60405180910390a150505050565b600081519050919050565b600082825260208201905092915050565b6000819050602082019050919050565b600073ffffffffffffffffffffffffffffffffffffffff82169050919050565b6000610700826106d5565b9050919050565b610710816106f5565b82525050565b6000819050919050565b61072981610716565b82525050565b600081519050919050565b600082825260208201905092915050565b60005b8381101561076957808201518184015260208101905061074e565b60008484015250505050565b6000601f19601f8301169050919050565b60006107918261072f565b61079b818561073a565b93506107ab81856020860161074b565b6107b481610775565b840191505092915050565b600060c0830160008301516107d76000860182610707565b5060208301516107ea6020860182610707565b5060408301516107fd6040860182610720565b50606083015184820360608601526108158282610786565b915050608083015161082a6080860182610720565b5060a083015184820360a08601526108428282610786565b9150508091505092915050565b600061085b83836107bf565b905092915050565b6000602082019050919050565b600061087b826106a9565b61088581856106b4565b935083602082028501610897856106c5565b8060005b858110156108d357848403895281516108b4858261084f565b94506108bf83610863565b925060208a0199505060018101905061089b565b50829750879550505050505092915050565b600060208201905081810360008301526108ff8184610870565b905092915050565b61091081610716565b82525050565b600060208201905061092b6000830184610907565b92915050565b6000604051905090565b600080fd5b600080fd5b61094e81610716565b811461095957600080fd5b50565b60008135905061096b81610945565b92915050565b6000602082840312156109875761098661093b565b5b60006109958482850161095c565b91505092915050565b6109a7816106f5565b82525050565b600082825260208201905092915050565b60006109c98261072f565b6109d381856109ad565b93506109e381856020860161074b565b6109ec81610775565b840191505092915050565b600060c082019050610a0c600083018961099e565b610a19602083018861099e565b610a266040830187610907565b8181036060830152610a3881866109be565b9050610a476080830185610907565b81810360a0830152610a5981846109be565b9050979650505050505050565b6000610a71826106d5565b9050919050565b610a8181610a66565b8114610a8c57600080fd5b50565b600081359050610a9e81610a78565b92915050565b600080fd5b600080fd5b7f4e487b7100000000000000000000000000000000000000000000000000000000600052604160045260246000fd5b610ae682610775565b810181811067ffffffffffffffff82111715610b0557610b04610aae565b5b80604052505050565b6000610b18610931565b9050610b248282610add565b919050565b600067ffffffffffffffff821115610b4457610b43610aae565b5b610b4d82610775565b9050602081019050919050565b82818337600083830152505050565b6000610b7c610b7784610b29565b610b0e565b905082815260208101848484011115610b9857610b97610aa9565b5b610ba3848285610b5a565b509392505050565b600082601f830112610bc057610bbf610aa4565b5b8135610bd0848260208601610b69565b91505092915050565b60008060008060808587031215610bf357610bf261093b565b5b6000610c0187828801610a8f565b9450506020610c128782880161095c565b935050604085013567ffffffffffffffff811115610c3357610c32610940565b5b610c3f87828801610bab565b925050606085013567ffffffffffffffff811115610c6057610c5f610940565b5b610c6c87828801610bab565b91505092959194509250565b7f4e487b7100000000000000000000000000000000000000000000000000000000600052602260045260246000fd5b60006002820490506001821680610cbf57607f821691505b602082108103610cd257610cd1610c78565b5b50919050565b7f4e487b7100000000000000000000000000000000000000000000000000000000600052601160045260246000fd5b6000610d1282610716565b9150610d1d83610716565b9250828201905080821115610d3557610d34610cd8565b5b92915050565b60008190508160005260206000209050919050565b60006020601f8301049050919050565b600082821b905092915050565b600060088302610d9d7fffffffffffffffffffffffffffffffffffffffffffffffffffffffffffffffff82610d60565b610da78683610d60565b95508019841693508086168417925050509392505050565b6000819050919050565b6000610de4610ddf610dda84610716565b610dbf565b610716565b9050919050565b6000819050919050565b610dfe83610dc9565b610e12610e0a82610deb565b848454610d6d565b825550505050565b600090565b610e27610e1a565b610e32818484610df5565b505050565b5b81811015610e5657610e4b600082610e1f565b600181019050610e38565b5050565b601f821115610e9b57610e6c81610d3b565b610e7584610d50565b81016020851015610e84578190505b610e98610e9085610d50565b830182610e37565b50505b505050565b600082821c905092915050565b6000610ebe60001984600802610ea0565b1980831691505092915050565b6000610ed78383610ead565b9150826002028217905092915050565b610ef08261072f565b67ffffffffffffffff811115610f0957610f08610aae565b5b610f138254610ca7565b610f1e828285610e5a565b600060209050601f831160018114610f515760008415610f3f578287015190505b610f498582610ecb565b865550610fb1565b601f198416610f5f86610d3b565b60005b82811015610f8757848901518255600182019150602085019450602081019050610f62565b86831015610fa45784890151610fa0601f891682610ead565b8355505b6001600288020188555050505b505050505050565b6000610fd4610fcf610fca846106d5565b610dbf565b6106d5565b9050919050565b6000610fe682610fb9565b9050919050565b6000610ff882610fdb565b9050919050565b61100881610fed565b82525050565b600060c082019050611023600083018961099e565b6110306020830188610fff565b61103d6040830187610907565b818103606083015261104f81866109be565b905061105e6080830185610907565b81810360a083015261107081846109be565b905097965050505050505056fea2646970667358221220553d434d37a38044a4ad203105a7bb411ba487af92248aab9ebc0275e4a69a3b64736f6c63430008180033",
    "linkReferences": {},
    "deployedLinkReferences": {}
}